{
	"Test.sol": {
		"B": {
			"abi": [
				{
					"inputs": [],
					"name": "num",
					"outputs": [
						{
							"internalType": "string",
							"name": "",
							"type": "string"
						}
					],
					"stateMutability": "view",
					"type": "function"
				},
				{
					"inputs": [],
					"name": "sender",
					"outputs": [
						{
							"internalType": "address",
							"name": "",
							"type": "address"
						}
					],
					"stateMutability": "view",
					"type": "function"
				},
				{
					"inputs": [
						{
							"internalType": "string",
							"name": "_num",
							"type": "string"
						}
					],
					"name": "setVars",
					"outputs": [],
					"stateMutability": "payable",
					"type": "function"
				},
				{
					"inputs": [],
					"name": "value",
					"outputs": [
						{
							"internalType": "uint256",
							"name": "",
							"type": "uint256"
						}
					],
					"stateMutability": "view",
					"type": "function"
				}
			],
			"devdoc": {
				"kind": "dev",
				"methods": {},
				"version": 1
			},
			"evm": {
				"assembly": "    /* \"Test.sol\":78:316  contract B {... */\n  mstore(0x40, 0x80)\n  callvalue\n  dup1\n  iszero\n  tag_1\n  jumpi\n  0x00\n  dup1\n  revert\ntag_1:\n  pop\n  dataSize(sub_0)\n  dup1\n  dataOffset(sub_0)\n  0x00\n  codecopy\n  0x00\n  return\nstop\n\nsub_0: assembly {\n        /* \"Test.sol\":78:316  contract B {... */\n      mstore(0x40, 0x80)\n      jumpi(tag_1, lt(calldatasize, 0x04))\n      shr(0xe0, calldataload(0x00))\n      dup1\n      0x3fa4f245\n      eq\n      tag_2\n      jumpi\n      dup1\n      0x4e70b1dc\n      eq\n      tag_3\n      jumpi\n      dup1\n      0x67e404ce\n      eq\n      tag_4\n      jumpi\n      dup1\n      0xdcd4c72e\n      eq\n      tag_5\n      jumpi\n    tag_1:\n      0x00\n      dup1\n      revert\n        /* \"Test.sol\":148:165  uint public value */\n    tag_2:\n      callvalue\n      dup1\n      iszero\n      tag_6\n      jumpi\n      0x00\n      dup1\n      revert\n    tag_6:\n      pop\n      tag_7\n      tag_8\n      jump\t// in\n    tag_7:\n      mload(0x40)\n      tag_9\n      swap2\n      swap1\n      tag_10\n      jump\t// in\n    tag_9:\n      mload(0x40)\n      dup1\n      swap2\n      sub\n      swap1\n      return\n        /* \"Test.sol\":96:113  string public num */\n    tag_3:\n      callvalue\n      dup1\n      iszero\n      tag_11\n      jumpi\n      0x00\n      dup1\n      revert\n    tag_11:\n      pop\n      tag_12\n      tag_13\n      jump\t// in\n    tag_12:\n      mload(0x40)\n      tag_14\n      swap2\n      swap1\n      tag_15\n      jump\t// in\n    tag_14:\n      mload(0x40)\n      dup1\n      swap2\n      sub\n      swap1\n      return\n        /* \"Test.sol\":120:141  address public sender */\n    tag_4:\n      callvalue\n      dup1\n      iszero\n      tag_16\n      jumpi\n      0x00\n      dup1\n      revert\n    tag_16:\n      pop\n      tag_17\n      tag_18\n      jump\t// in\n    tag_17:\n      mload(0x40)\n      tag_19\n      swap2\n      swap1\n      tag_20\n      jump\t// in\n    tag_19:\n      mload(0x40)\n      dup1\n      swap2\n      sub\n      swap1\n      return\n        /* \"Test.sol\":174:313  function setVars(string memory _num) public payable {... */\n    tag_5:\n      tag_21\n      0x04\n      dup1\n      calldatasize\n      sub\n      dup2\n      add\n      swap1\n      tag_22\n      swap2\n      swap1\n      tag_23\n      jump\t// in\n    tag_22:\n      tag_24\n      jump\t// in\n    tag_21:\n      stop\n        /* \"Test.sol\":148:165  uint public value */\n    tag_8:\n      sload(0x02)\n      dup2\n      jump\t// out\n        /* \"Test.sol\":96:113  string public num */\n    tag_13:\n      0x00\n      dup1\n      sload\n      tag_25\n      swap1\n      tag_26\n      jump\t// in\n    tag_25:\n      dup1\n      0x1f\n      add\n      0x20\n      dup1\n      swap2\n      div\n      mul\n      0x20\n      add\n      mload(0x40)\n      swap1\n      dup2\n      add\n      0x40\n      mstore\n      dup1\n      swap3\n      swap2\n      swap1\n      dup2\n      dup2\n      mstore\n      0x20\n      add\n      dup3\n      dup1\n      sload\n      tag_27\n      swap1\n      tag_26\n      jump\t// in\n    tag_27:\n      dup1\n      iszero\n      tag_28\n      jumpi\n      dup1\n      0x1f\n      lt\n      tag_29\n      jumpi\n      0x0100\n      dup1\n      dup4\n      sload\n      div\n      mul\n      dup4\n      mstore\n      swap2\n      0x20\n      add\n      swap2\n      jump(tag_28)\n    tag_29:\n      dup3\n      add\n      swap2\n      swap1\n      0x00\n      mstore\n      keccak256(0x00, 0x20)\n      swap1\n    tag_30:\n      dup2\n      sload\n      dup2\n      mstore\n      swap1\n      0x01\n      add\n      swap1\n      0x20\n      add\n      dup1\n      dup4\n      gt\n      tag_30\n      jumpi\n      dup3\n      swap1\n      sub\n      0x1f\n      and\n      dup3\n      add\n      swap2\n    tag_28:\n      pop\n      pop\n      pop\n      pop\n      pop\n      dup2\n      jump\t// out\n        /* \"Test.sol\":120:141  address public sender */\n    tag_18:\n      0x01\n      0x00\n      swap1\n      sload\n      swap1\n      0x0100\n      exp\n      swap1\n      div\n      0xffffffffffffffffffffffffffffffffffffffff\n      and\n      dup2\n      jump\t// out\n        /* \"Test.sol\":174:313  function setVars(string memory _num) public payable {... */\n    tag_24:\n        /* \"Test.sol\":243:247  _num */\n      dup1\n        /* \"Test.sol\":237:240  num */\n      0x00\n        /* \"Test.sol\":237:247  num = _num */\n      swap1\n      dup2\n      tag_32\n      swap2\n      swap1\n      tag_33\n      jump\t// in\n    tag_32:\n      pop\n        /* \"Test.sol\":267:277  msg.sender */\n      caller\n        /* \"Test.sol\":258:264  sender */\n      0x01\n      0x00\n        /* \"Test.sol\":258:277  sender = msg.sender */\n      0x0100\n      exp\n      dup2\n      sload\n      dup2\n      0xffffffffffffffffffffffffffffffffffffffff\n      mul\n      not\n      and\n      swap1\n      dup4\n      0xffffffffffffffffffffffffffffffffffffffff\n      and\n      mul\n      or\n      swap1\n      sstore\n      pop\n        /* \"Test.sol\":296:305  msg.value */\n      callvalue\n        /* \"Test.sol\":288:293  value */\n      0x02\n        /* \"Test.sol\":288:305  value = msg.value */\n      dup2\n      swap1\n      sstore\n      pop\n        /* \"Test.sol\":174:313  function setVars(string memory _num) public payable {... */\n      pop\n      jump\t// out\n        /* \"#utility.yul\":7:84   */\n    tag_34:\n        /* \"#utility.yul\":44:51   */\n      0x00\n        /* \"#utility.yul\":73:78   */\n      dup2\n        /* \"#utility.yul\":62:78   */\n      swap1\n      pop\n        /* \"#utility.yul\":7:84   */\n      swap2\n      swap1\n      pop\n      jump\t// out\n        /* \"#utility.yul\":90:208   */\n    tag_35:\n        /* \"#utility.yul\":177:201   */\n      tag_75\n        /* \"#utility.yul\":195:200   */\n      dup2\n        /* \"#utility.yul\":177:201   */\n      tag_34\n      jump\t// in\n    tag_75:\n        /* \"#utility.yul\":172:175   */\n      dup3\n        /* \"#utility.yul\":165:202   */\n      mstore\n        /* \"#utility.yul\":90:208   */\n      pop\n      pop\n      jump\t// out\n        /* \"#utility.yul\":214:436   */\n    tag_10:\n        /* \"#utility.yul\":307:311   */\n      0x00\n        /* \"#utility.yul\":345:347   */\n      0x20\n        /* \"#utility.yul\":334:343   */\n      dup3\n        /* \"#utility.yul\":330:348   */\n      add\n        /* \"#utility.yul\":322:348   */\n      swap1\n      pop\n        /* \"#utility.yul\":358:429   */\n      tag_77\n        /* \"#utility.yul\":426:427   */\n      0x00\n        /* \"#utility.yul\":415:424   */\n      dup4\n        /* \"#utility.yul\":411:428   */\n      add\n        /* \"#utility.yul\":402:408   */\n      dup5\n        /* \"#utility.yul\":358:429   */\n      tag_35\n      jump\t// in\n    tag_77:\n        /* \"#utility.yul\":214:436   */\n      swap3\n      swap2\n      pop\n      pop\n      jump\t// out\n        /* \"#utility.yul\":442:541   */\n    tag_36:\n        /* \"#utility.yul\":494:500   */\n      0x00\n        /* \"#utility.yul\":528:533   */\n      dup2\n        /* \"#utility.yul\":522:534   */\n      mload\n        /* \"#utility.yul\":512:534   */\n      swap1\n      pop\n        /* \"#utility.yul\":442:541   */\n      swap2\n      swap1\n      pop\n      jump\t// out\n        /* \"#utility.yul\":547:716   */\n    tag_37:\n        /* \"#utility.yul\":631:642   */\n      0x00\n        /* \"#utility.yul\":665:671   */\n      dup3\n        /* \"#utility.yul\":660:663   */\n      dup3\n        /* \"#utility.yul\":653:672   */\n      mstore\n        /* \"#utility.yul\":705:709   */\n      0x20\n        /* \"#utility.yul\":700:703   */\n      dup3\n        /* \"#utility.yul\":696:710   */\n      add\n        /* \"#utility.yul\":681:710   */\n      swap1\n      pop\n        /* \"#utility.yul\":547:716   */\n      swap3\n      swap2\n      pop\n      pop\n      jump\t// out\n        /* \"#utility.yul\":722:968   */\n    tag_38:\n        /* \"#utility.yul\":803:804   */\n      0x00\n        /* \"#utility.yul\":813:926   */\n    tag_81:\n        /* \"#utility.yul\":827:833   */\n      dup4\n        /* \"#utility.yul\":824:825   */\n      dup2\n        /* \"#utility.yul\":821:834   */\n      lt\n        /* \"#utility.yul\":813:926   */\n      iszero\n      tag_83\n      jumpi\n        /* \"#utility.yul\":912:913   */\n      dup1\n        /* \"#utility.yul\":907:910   */\n      dup3\n        /* \"#utility.yul\":903:914   */\n      add\n        /* \"#utility.yul\":897:915   */\n      mload\n        /* \"#utility.yul\":893:894   */\n      dup2\n        /* \"#utility.yul\":888:891   */\n      dup5\n        /* \"#utility.yul\":884:895   */\n      add\n        /* \"#utility.yul\":877:916   */\n      mstore\n        /* \"#utility.yul\":849:851   */\n      0x20\n        /* \"#utility.yul\":846:847   */\n      dup2\n        /* \"#utility.yul\":842:852   */\n      add\n        /* \"#utility.yul\":837:852   */\n      swap1\n      pop\n        /* \"#utility.yul\":813:926   */\n      jump(tag_81)\n    tag_83:\n        /* \"#utility.yul\":960:961   */\n      0x00\n        /* \"#utility.yul\":951:957   */\n      dup5\n        /* \"#utility.yul\":946:949   */\n      dup5\n        /* \"#utility.yul\":942:958   */\n      add\n        /* \"#utility.yul\":935:962   */\n      mstore\n        /* \"#utility.yul\":784:968   */\n      pop\n        /* \"#utility.yul\":722:968   */\n      pop\n      pop\n      pop\n      jump\t// out\n        /* \"#utility.yul\":974:1076   */\n    tag_39:\n        /* \"#utility.yul\":1015:1021   */\n      0x00\n        /* \"#utility.yul\":1066:1068   */\n      0x1f\n        /* \"#utility.yul\":1062:1069   */\n      not\n        /* \"#utility.yul\":1057:1059   */\n      0x1f\n        /* \"#utility.yul\":1050:1055   */\n      dup4\n        /* \"#utility.yul\":1046:1060   */\n      add\n        /* \"#utility.yul\":1042:1070   */\n      and\n        /* \"#utility.yul\":1032:1070   */\n      swap1\n      pop\n        /* \"#utility.yul\":974:1076   */\n      swap2\n      swap1\n      pop\n      jump\t// out\n        /* \"#utility.yul\":1082:1459   */\n    tag_40:\n        /* \"#utility.yul\":1170:1173   */\n      0x00\n        /* \"#utility.yul\":1198:1237   */\n      tag_86\n        /* \"#utility.yul\":1231:1236   */\n      dup3\n        /* \"#utility.yul\":1198:1237   */\n      tag_36\n      jump\t// in\n    tag_86:\n        /* \"#utility.yul\":1253:1324   */\n      tag_87\n        /* \"#utility.yul\":1317:1323   */\n      dup2\n        /* \"#utility.yul\":1312:1315   */\n      dup6\n        /* \"#utility.yul\":1253:1324   */\n      tag_37\n      jump\t// in\n    tag_87:\n        /* \"#utility.yul\":1246:1324   */\n      swap4\n      pop\n        /* \"#utility.yul\":1333:1398   */\n      tag_88\n        /* \"#utility.yul\":1391:1397   */\n      dup2\n        /* \"#utility.yul\":1386:1389   */\n      dup6\n        /* \"#utility.yul\":1379:1383   */\n      0x20\n        /* \"#utility.yul\":1372:1377   */\n      dup7\n        /* \"#utility.yul\":1368:1384   */\n      add\n        /* \"#utility.yul\":1333:1398   */\n      tag_38\n      jump\t// in\n    tag_88:\n        /* \"#utility.yul\":1423:1452   */\n      tag_89\n        /* \"#utility.yul\":1445:1451   */\n      dup2\n        /* \"#utility.yul\":1423:1452   */\n      tag_39\n      jump\t// in\n    tag_89:\n        /* \"#utility.yul\":1418:1421   */\n      dup5\n        /* \"#utility.yul\":1414:1453   */\n      add\n        /* \"#utility.yul\":1407:1453   */\n      swap2\n      pop\n        /* \"#utility.yul\":1174:1459   */\n      pop\n        /* \"#utility.yul\":1082:1459   */\n      swap3\n      swap2\n      pop\n      pop\n      jump\t// out\n        /* \"#utility.yul\":1465:1778   */\n    tag_15:\n        /* \"#utility.yul\":1578:1582   */\n      0x00\n        /* \"#utility.yul\":1616:1618   */\n      0x20\n        /* \"#utility.yul\":1605:1614   */\n      dup3\n        /* \"#utility.yul\":1601:1619   */\n      add\n        /* \"#utility.yul\":1593:1619   */\n      swap1\n      pop\n        /* \"#utility.yul\":1665:1674   */\n      dup2\n        /* \"#utility.yul\":1659:1663   */\n      dup2\n        /* \"#utility.yul\":1655:1675   */\n      sub\n        /* \"#utility.yul\":1651:1652   */\n      0x00\n        /* \"#utility.yul\":1640:1649   */\n      dup4\n        /* \"#utility.yul\":1636:1653   */\n      add\n        /* \"#utility.yul\":1629:1676   */\n      mstore\n        /* \"#utility.yul\":1693:1771   */\n      tag_91\n        /* \"#utility.yul\":1766:1770   */\n      dup2\n        /* \"#utility.yul\":1757:1763   */\n      dup5\n        /* \"#utility.yul\":1693:1771   */\n      tag_40\n      jump\t// in\n    tag_91:\n        /* \"#utility.yul\":1685:1771   */\n      swap1\n      pop\n        /* \"#utility.yul\":1465:1778   */\n      swap3\n      swap2\n      pop\n      pop\n      jump\t// out\n        /* \"#utility.yul\":1784:1910   */\n    tag_41:\n        /* \"#utility.yul\":1821:1828   */\n      0x00\n        /* \"#utility.yul\":1861:1903   */\n      0xffffffffffffffffffffffffffffffffffffffff\n        /* \"#utility.yul\":1854:1859   */\n      dup3\n        /* \"#utility.yul\":1850:1904   */\n      and\n        /* \"#utility.yul\":1839:1904   */\n      swap1\n      pop\n        /* \"#utility.yul\":1784:1910   */\n      swap2\n      swap1\n      pop\n      jump\t// out\n        /* \"#utility.yul\":1916:2012   */\n    tag_42:\n        /* \"#utility.yul\":1953:1960   */\n      0x00\n        /* \"#utility.yul\":1982:2006   */\n      tag_94\n        /* \"#utility.yul\":2000:2005   */\n      dup3\n        /* \"#utility.yul\":1982:2006   */\n      tag_41\n      jump\t// in\n    tag_94:\n        /* \"#utility.yul\":1971:2006   */\n      swap1\n      pop\n        /* \"#utility.yul\":1916:2012   */\n      swap2\n      swap1\n      pop\n      jump\t// out\n        /* \"#utility.yul\":2018:2136   */\n    tag_43:\n        /* \"#utility.yul\":2105:2129   */\n      tag_96\n        /* \"#utility.yul\":2123:2128   */\n      dup2\n        /* \"#utility.yul\":2105:2129   */\n      tag_42\n      jump\t// in\n    tag_96:\n        /* \"#utility.yul\":2100:2103   */\n      dup3\n        /* \"#utility.yul\":2093:2130   */\n      mstore\n        /* \"#utility.yul\":2018:2136   */\n      pop\n      pop\n      jump\t// out\n        /* \"#utility.yul\":2142:2364   */\n    tag_20:\n        /* \"#utility.yul\":2235:2239   */\n      0x00\n        /* \"#utility.yul\":2273:2275   */\n      0x20\n        /* \"#utility.yul\":2262:2271   */\n      dup3\n        /* \"#utility.yul\":2258:2276   */\n      add\n        /* \"#utility.yul\":2250:2276   */\n      swap1\n      pop\n        /* \"#utility.yul\":2286:2357   */\n      tag_98\n        /* \"#utility.yul\":2354:2355   */\n      0x00\n        /* \"#utility.yul\":2343:2352   */\n      dup4\n        /* \"#utility.yul\":2339:2356   */\n      add\n        /* \"#utility.yul\":2330:2336   */\n      dup5\n        /* \"#utility.yul\":2286:2357   */\n      tag_43\n      jump\t// in\n    tag_98:\n        /* \"#utility.yul\":2142:2364   */\n      swap3\n      swap2\n      pop\n      pop\n      jump\t// out\n        /* \"#utility.yul\":2370:2445   */\n    tag_44:\n        /* \"#utility.yul\":2403:2409   */\n      0x00\n        /* \"#utility.yul\":2436:2438   */\n      0x40\n        /* \"#utility.yul\":2430:2439   */\n      mload\n        /* \"#utility.yul\":2420:2439   */\n      swap1\n      pop\n        /* \"#utility.yul\":2370:2445   */\n      swap1\n      jump\t// out\n        /* \"#utility.yul\":2451:2568   */\n    tag_45:\n        /* \"#utility.yul\":2560:2561   */\n      0x00\n        /* \"#utility.yul\":2557:2558   */\n      dup1\n        /* \"#utility.yul\":2550:2562   */\n      revert\n        /* \"#utility.yul\":2574:2691   */\n    tag_46:\n        /* \"#utility.yul\":2683:2684   */\n      0x00\n        /* \"#utility.yul\":2680:2681   */\n      dup1\n        /* \"#utility.yul\":2673:2685   */\n      revert\n        /* \"#utility.yul\":2697:2814   */\n    tag_47:\n        /* \"#utility.yul\":2806:2807   */\n      0x00\n        /* \"#utility.yul\":2803:2804   */\n      dup1\n        /* \"#utility.yul\":2796:2808   */\n      revert\n        /* \"#utility.yul\":2820:2937   */\n    tag_48:\n        /* \"#utility.yul\":2929:2930   */\n      0x00\n        /* \"#utility.yul\":2926:2927   */\n      dup1\n        /* \"#utility.yul\":2919:2931   */\n      revert\n        /* \"#utility.yul\":2943:3123   */\n    tag_49:\n        /* \"#utility.yul\":2991:3068   */\n      0x4e487b7100000000000000000000000000000000000000000000000000000000\n        /* \"#utility.yul\":2988:2989   */\n      0x00\n        /* \"#utility.yul\":2981:3069   */\n      mstore\n        /* \"#utility.yul\":3088:3092   */\n      0x41\n        /* \"#utility.yul\":3085:3086   */\n      0x04\n        /* \"#utility.yul\":3078:3093   */\n      mstore\n        /* \"#utility.yul\":3112:3116   */\n      0x24\n        /* \"#utility.yul\":3109:3110   */\n      0x00\n        /* \"#utility.yul\":3102:3117   */\n      revert\n        /* \"#utility.yul\":3129:3410   */\n    tag_50:\n        /* \"#utility.yul\":3212:3239   */\n      tag_106\n        /* \"#utility.yul\":3234:3238   */\n      dup3\n        /* \"#utility.yul\":3212:3239   */\n      tag_39\n      jump\t// in\n    tag_106:\n        /* \"#utility.yul\":3204:3210   */\n      dup2\n        /* \"#utility.yul\":3200:3240   */\n      add\n        /* \"#utility.yul\":3342:3348   */\n      dup2\n        /* \"#utility.yul\":3330:3340   */\n      dup2\n        /* \"#utility.yul\":3327:3349   */\n      lt\n        /* \"#utility.yul\":3306:3324   */\n      0xffffffffffffffff\n        /* \"#utility.yul\":3294:3304   */\n      dup3\n        /* \"#utility.yul\":3291:3325   */\n      gt\n        /* \"#utility.yul\":3288:3350   */\n      or\n        /* \"#utility.yul\":3285:3373   */\n      iszero\n      tag_107\n      jumpi\n        /* \"#utility.yul\":3353:3371   */\n      tag_108\n      tag_49\n      jump\t// in\n    tag_108:\n        /* \"#utility.yul\":3285:3373   */\n    tag_107:\n        /* \"#utility.yul\":3393:3403   */\n      dup1\n        /* \"#utility.yul\":3389:3391   */\n      0x40\n        /* \"#utility.yul\":3382:3404   */\n      mstore\n        /* \"#utility.yul\":3172:3410   */\n      pop\n        /* \"#utility.yul\":3129:3410   */\n      pop\n      pop\n      jump\t// out\n        /* \"#utility.yul\":3416:3545   */\n    tag_51:\n        /* \"#utility.yul\":3450:3456   */\n      0x00\n        /* \"#utility.yul\":3477:3497   */\n      tag_110\n      tag_44\n      jump\t// in\n    tag_110:\n        /* \"#utility.yul\":3467:3497   */\n      swap1\n      pop\n        /* \"#utility.yul\":3506:3539   */\n      tag_111\n        /* \"#utility.yul\":3534:3538   */\n      dup3\n        /* \"#utility.yul\":3526:3532   */\n      dup3\n        /* \"#utility.yul\":3506:3539   */\n      tag_50\n      jump\t// in\n    tag_111:\n        /* \"#utility.yul\":3416:3545   */\n      swap2\n      swap1\n      pop\n      jump\t// out\n        /* \"#utility.yul\":3551:3859   */\n    tag_52:\n        /* \"#utility.yul\":3613:3617   */\n      0x00\n        /* \"#utility.yul\":3703:3721   */\n      0xffffffffffffffff\n        /* \"#utility.yul\":3695:3701   */\n      dup3\n        /* \"#utility.yul\":3692:3722   */\n      gt\n        /* \"#utility.yul\":3689:3745   */\n      iszero\n      tag_113\n      jumpi\n        /* \"#utility.yul\":3725:3743   */\n      tag_114\n      tag_49\n      jump\t// in\n    tag_114:\n        /* \"#utility.yul\":3689:3745   */\n    tag_113:\n        /* \"#utility.yul\":3763:3792   */\n      tag_115\n        /* \"#utility.yul\":3785:3791   */\n      dup3\n        /* \"#utility.yul\":3763:3792   */\n      tag_39\n      jump\t// in\n    tag_115:\n        /* \"#utility.yul\":3755:3792   */\n      swap1\n      pop\n        /* \"#utility.yul\":3847:3851   */\n      0x20\n        /* \"#utility.yul\":3841:3845   */\n      dup2\n        /* \"#utility.yul\":3837:3852   */\n      add\n        /* \"#utility.yul\":3829:3852   */\n      swap1\n      pop\n        /* \"#utility.yul\":3551:3859   */\n      swap2\n      swap1\n      pop\n      jump\t// out\n        /* \"#utility.yul\":3865:4011   */\n    tag_53:\n        /* \"#utility.yul\":3962:3968   */\n      dup3\n        /* \"#utility.yul\":3957:3960   */\n      dup2\n        /* \"#utility.yul\":3952:3955   */\n      dup4\n        /* \"#utility.yul\":3939:3969   */\n      calldatacopy\n        /* \"#utility.yul\":4003:4004   */\n      0x00\n        /* \"#utility.yul\":3994:4000   */\n      dup4\n        /* \"#utility.yul\":3989:3992   */\n      dup4\n        /* \"#utility.yul\":3985:4001   */\n      add\n        /* \"#utility.yul\":3978:4005   */\n      mstore\n        /* \"#utility.yul\":3865:4011   */\n      pop\n      pop\n      pop\n      jump\t// out\n        /* \"#utility.yul\":4017:4442   */\n    tag_54:\n        /* \"#utility.yul\":4095:4100   */\n      0x00\n        /* \"#utility.yul\":4120:4186   */\n      tag_118\n        /* \"#utility.yul\":4136:4185   */\n      tag_119\n        /* \"#utility.yul\":4178:4184   */\n      dup5\n        /* \"#utility.yul\":4136:4185   */\n      tag_52\n      jump\t// in\n    tag_119:\n        /* \"#utility.yul\":4120:4186   */\n      tag_51\n      jump\t// in\n    tag_118:\n        /* \"#utility.yul\":4111:4186   */\n      swap1\n      pop\n        /* \"#utility.yul\":4209:4215   */\n      dup3\n        /* \"#utility.yul\":4202:4207   */\n      dup2\n        /* \"#utility.yul\":4195:4216   */\n      mstore\n        /* \"#utility.yul\":4247:4251   */\n      0x20\n        /* \"#utility.yul\":4240:4245   */\n      dup2\n        /* \"#utility.yul\":4236:4252   */\n      add\n        /* \"#utility.yul\":4285:4288   */\n      dup5\n        /* \"#utility.yul\":4276:4282   */\n      dup5\n        /* \"#utility.yul\":4271:4274   */\n      dup5\n        /* \"#utility.yul\":4267:4283   */\n      add\n        /* \"#utility.yul\":4264:4289   */\n      gt\n        /* \"#utility.yul\":4261:4373   */\n      iszero\n      tag_120\n      jumpi\n        /* \"#utility.yul\":4292:4371   */\n      tag_121\n      tag_48\n      jump\t// in\n    tag_121:\n        /* \"#utility.yul\":4261:4373   */\n    tag_120:\n        /* \"#utility.yul\":4382:4436   */\n      tag_122\n        /* \"#utility.yul\":4429:4435   */\n      dup5\n        /* \"#utility.yul\":4424:4427   */\n      dup3\n        /* \"#utility.yul\":4419:4422   */\n      dup6\n        /* \"#utility.yul\":4382:4436   */\n      tag_53\n      jump\t// in\n    tag_122:\n        /* \"#utility.yul\":4101:4442   */\n      pop\n        /* \"#utility.yul\":4017:4442   */\n      swap4\n      swap3\n      pop\n      pop\n      pop\n      jump\t// out\n        /* \"#utility.yul\":4462:4802   */\n    tag_55:\n        /* \"#utility.yul\":4518:4523   */\n      0x00\n        /* \"#utility.yul\":4567:4570   */\n      dup3\n        /* \"#utility.yul\":4560:4564   */\n      0x1f\n        /* \"#utility.yul\":4552:4558   */\n      dup4\n        /* \"#utility.yul\":4548:4565   */\n      add\n        /* \"#utility.yul\":4544:4571   */\n      slt\n        /* \"#utility.yul\":4534:4656   */\n      tag_124\n      jumpi\n        /* \"#utility.yul\":4575:4654   */\n      tag_125\n      tag_47\n      jump\t// in\n    tag_125:\n        /* \"#utility.yul\":4534:4656   */\n    tag_124:\n        /* \"#utility.yul\":4692:4698   */\n      dup2\n        /* \"#utility.yul\":4679:4699   */\n      calldataload\n        /* \"#utility.yul\":4717:4796   */\n      tag_126\n        /* \"#utility.yul\":4792:4795   */\n      dup5\n        /* \"#utility.yul\":4784:4790   */\n      dup3\n        /* \"#utility.yul\":4777:4781   */\n      0x20\n        /* \"#utility.yul\":4769:4775   */\n      dup7\n        /* \"#utility.yul\":4765:4782   */\n      add\n        /* \"#utility.yul\":4717:4796   */\n      tag_54\n      jump\t// in\n    tag_126:\n        /* \"#utility.yul\":4708:4796   */\n      swap2\n      pop\n        /* \"#utility.yul\":4524:4802   */\n      pop\n        /* \"#utility.yul\":4462:4802   */\n      swap3\n      swap2\n      pop\n      pop\n      jump\t// out\n        /* \"#utility.yul\":4808:5317   */\n    tag_23:\n        /* \"#utility.yul\":4877:4883   */\n      0x00\n        /* \"#utility.yul\":4926:4928   */\n      0x20\n        /* \"#utility.yul\":4914:4923   */\n      dup3\n        /* \"#utility.yul\":4905:4912   */\n      dup5\n        /* \"#utility.yul\":4901:4924   */\n      sub\n        /* \"#utility.yul\":4897:4929   */\n      slt\n        /* \"#utility.yul\":4894:5013   */\n      iszero\n      tag_128\n      jumpi\n        /* \"#utility.yul\":4932:5011   */\n      tag_129\n      tag_45\n      jump\t// in\n    tag_129:\n        /* \"#utility.yul\":4894:5013   */\n    tag_128:\n        /* \"#utility.yul\":5080:5081   */\n      0x00\n        /* \"#utility.yul\":5069:5078   */\n      dup3\n        /* \"#utility.yul\":5065:5082   */\n      add\n        /* \"#utility.yul\":5052:5083   */\n      calldataload\n        /* \"#utility.yul\":5110:5128   */\n      0xffffffffffffffff\n        /* \"#utility.yul\":5102:5108   */\n      dup2\n        /* \"#utility.yul\":5099:5129   */\n      gt\n        /* \"#utility.yul\":5096:5213   */\n      iszero\n      tag_130\n      jumpi\n        /* \"#utility.yul\":5132:5211   */\n      tag_131\n      tag_46\n      jump\t// in\n    tag_131:\n        /* \"#utility.yul\":5096:5213   */\n    tag_130:\n        /* \"#utility.yul\":5237:5300   */\n      tag_132\n        /* \"#utility.yul\":5292:5299   */\n      dup5\n        /* \"#utility.yul\":5283:5289   */\n      dup3\n        /* \"#utility.yul\":5272:5281   */\n      dup6\n        /* \"#utility.yul\":5268:5290   */\n      add\n        /* \"#utility.yul\":5237:5300   */\n      tag_55\n      jump\t// in\n    tag_132:\n        /* \"#utility.yul\":5227:5300   */\n      swap2\n      pop\n        /* \"#utility.yul\":5023:5310   */\n      pop\n        /* \"#utility.yul\":4808:5317   */\n      swap3\n      swap2\n      pop\n      pop\n      jump\t// out\n        /* \"#utility.yul\":5323:5503   */\n    tag_56:\n        /* \"#utility.yul\":5371:5448   */\n      0x4e487b7100000000000000000000000000000000000000000000000000000000\n        /* \"#utility.yul\":5368:5369   */\n      0x00\n        /* \"#utility.yul\":5361:5449   */\n      mstore\n        /* \"#utility.yul\":5468:5472   */\n      0x22\n        /* \"#utility.yul\":5465:5466   */\n      0x04\n        /* \"#utility.yul\":5458:5473   */\n      mstore\n        /* \"#utility.yul\":5492:5496   */\n      0x24\n        /* \"#utility.yul\":5489:5490   */\n      0x00\n        /* \"#utility.yul\":5482:5497   */\n      revert\n        /* \"#utility.yul\":5509:5829   */\n    tag_26:\n        /* \"#utility.yul\":5553:5559   */\n      0x00\n        /* \"#utility.yul\":5590:5591   */\n      0x02\n        /* \"#utility.yul\":5584:5588   */\n      dup3\n        /* \"#utility.yul\":5580:5592   */\n      div\n        /* \"#utility.yul\":5570:5592   */\n      swap1\n      pop\n        /* \"#utility.yul\":5637:5638   */\n      0x01\n        /* \"#utility.yul\":5631:5635   */\n      dup3\n        /* \"#utility.yul\":5627:5639   */\n      and\n        /* \"#utility.yul\":5658:5676   */\n      dup1\n        /* \"#utility.yul\":5648:5729   */\n      tag_135\n      jumpi\n        /* \"#utility.yul\":5714:5718   */\n      0x7f\n        /* \"#utility.yul\":5706:5712   */\n      dup3\n        /* \"#utility.yul\":5702:5719   */\n      and\n        /* \"#utility.yul\":5692:5719   */\n      swap2\n      pop\n        /* \"#utility.yul\":5648:5729   */\n    tag_135:\n        /* \"#utility.yul\":5776:5778   */\n      0x20\n        /* \"#utility.yul\":5768:5774   */\n      dup3\n        /* \"#utility.yul\":5765:5779   */\n      lt\n        /* \"#utility.yul\":5745:5763   */\n      dup2\n        /* \"#utility.yul\":5742:5780   */\n      sub\n        /* \"#utility.yul\":5739:5823   */\n      tag_136\n      jumpi\n        /* \"#utility.yul\":5795:5813   */\n      tag_137\n      tag_56\n      jump\t// in\n    tag_137:\n        /* \"#utility.yul\":5739:5823   */\n    tag_136:\n        /* \"#utility.yul\":5560:5829   */\n      pop\n        /* \"#utility.yul\":5509:5829   */\n      swap2\n      swap1\n      pop\n      jump\t// out\n        /* \"#utility.yul\":5835:5976   */\n    tag_57:\n        /* \"#utility.yul\":5884:5888   */\n      0x00\n        /* \"#utility.yul\":5907:5910   */\n      dup2\n        /* \"#utility.yul\":5899:5910   */\n      swap1\n      pop\n        /* \"#utility.yul\":5930:5933   */\n      dup2\n        /* \"#utility.yul\":5927:5928   */\n      0x00\n        /* \"#utility.yul\":5920:5934   */\n      mstore\n        /* \"#utility.yul\":5964:5968   */\n      0x20\n        /* \"#utility.yul\":5961:5962   */\n      0x00\n        /* \"#utility.yul\":5951:5969   */\n      keccak256\n        /* \"#utility.yul\":5943:5969   */\n      swap1\n      pop\n        /* \"#utility.yul\":5835:5976   */\n      swap2\n      swap1\n      pop\n      jump\t// out\n        /* \"#utility.yul\":5982:6075   */\n    tag_58:\n        /* \"#utility.yul\":6019:6025   */\n      0x00\n        /* \"#utility.yul\":6066:6068   */\n      0x20\n        /* \"#utility.yul\":6061:6063   */\n      0x1f\n        /* \"#utility.yul\":6054:6059   */\n      dup4\n        /* \"#utility.yul\":6050:6064   */\n      add\n        /* \"#utility.yul\":6046:6069   */\n      div\n        /* \"#utility.yul\":6036:6069   */\n      swap1\n      pop\n        /* \"#utility.yul\":5982:6075   */\n      swap2\n      swap1\n      pop\n      jump\t// out\n        /* \"#utility.yul\":6081:6188   */\n    tag_59:\n        /* \"#utility.yul\":6125:6133   */\n      0x00\n        /* \"#utility.yul\":6175:6180   */\n      dup3\n        /* \"#utility.yul\":6169:6173   */\n      dup3\n        /* \"#utility.yul\":6165:6181   */\n      shl\n        /* \"#utility.yul\":6144:6181   */\n      swap1\n      pop\n        /* \"#utility.yul\":6081:6188   */\n      swap3\n      swap2\n      pop\n      pop\n      jump\t// out\n        /* \"#utility.yul\":6194:6587   */\n    tag_60:\n        /* \"#utility.yul\":6263:6269   */\n      0x00\n        /* \"#utility.yul\":6313:6314   */\n      0x08\n        /* \"#utility.yul\":6301:6311   */\n      dup4\n        /* \"#utility.yul\":6297:6315   */\n      mul\n        /* \"#utility.yul\":6336:6433   */\n      tag_142\n        /* \"#utility.yul\":6366:6432   */\n      0xffffffffffffffffffffffffffffffffffffffffffffffffffffffffffffffff\n        /* \"#utility.yul\":6355:6364   */\n      dup3\n        /* \"#utility.yul\":6336:6433   */\n      tag_59\n      jump\t// in\n    tag_142:\n        /* \"#utility.yul\":6454:6493   */\n      tag_143\n        /* \"#utility.yul\":6484:6492   */\n      dup7\n        /* \"#utility.yul\":6473:6482   */\n      dup4\n        /* \"#utility.yul\":6454:6493   */\n      tag_59\n      jump\t// in\n    tag_143:\n        /* \"#utility.yul\":6442:6493   */\n      swap6\n      pop\n        /* \"#utility.yul\":6526:6530   */\n      dup1\n        /* \"#utility.yul\":6522:6531   */\n      not\n        /* \"#utility.yul\":6515:6520   */\n      dup5\n        /* \"#utility.yul\":6511:6532   */\n      and\n        /* \"#utility.yul\":6502:6532   */\n      swap4\n      pop\n        /* \"#utility.yul\":6575:6579   */\n      dup1\n        /* \"#utility.yul\":6565:6573   */\n      dup7\n        /* \"#utility.yul\":6561:6580   */\n      and\n        /* \"#utility.yul\":6554:6559   */\n      dup5\n        /* \"#utility.yul\":6551:6581   */\n      or\n        /* \"#utility.yul\":6541:6581   */\n      swap3\n      pop\n        /* \"#utility.yul\":6270:6587   */\n      pop\n      pop\n        /* \"#utility.yul\":6194:6587   */\n      swap4\n      swap3\n      pop\n      pop\n      pop\n      jump\t// out\n        /* \"#utility.yul\":6593:6653   */\n    tag_61:\n        /* \"#utility.yul\":6621:6624   */\n      0x00\n        /* \"#utility.yul\":6642:6647   */\n      dup2\n        /* \"#utility.yul\":6635:6647   */\n      swap1\n      pop\n        /* \"#utility.yul\":6593:6653   */\n      swap2\n      swap1\n      pop\n      jump\t// out\n        /* \"#utility.yul\":6659:6801   */\n    tag_62:\n        /* \"#utility.yul\":6709:6718   */\n      0x00\n        /* \"#utility.yul\":6742:6795   */\n      tag_146\n        /* \"#utility.yul\":6760:6794   */\n      tag_147\n        /* \"#utility.yul\":6769:6793   */\n      tag_148\n        /* \"#utility.yul\":6787:6792   */\n      dup5\n        /* \"#utility.yul\":6769:6793   */\n      tag_34\n      jump\t// in\n    tag_148:\n        /* \"#utility.yul\":6760:6794   */\n      tag_61\n      jump\t// in\n    tag_147:\n        /* \"#utility.yul\":6742:6795   */\n      tag_34\n      jump\t// in\n    tag_146:\n        /* \"#utility.yul\":6729:6795   */\n      swap1\n      pop\n        /* \"#utility.yul\":6659:6801   */\n      swap2\n      swap1\n      pop\n      jump\t// out\n        /* \"#utility.yul\":6807:6882   */\n    tag_63:\n        /* \"#utility.yul\":6850:6853   */\n      0x00\n        /* \"#utility.yul\":6871:6876   */\n      dup2\n        /* \"#utility.yul\":6864:6876   */\n      swap1\n      pop\n        /* \"#utility.yul\":6807:6882   */\n      swap2\n      swap1\n      pop\n      jump\t// out\n        /* \"#utility.yul\":6888:7157   */\n    tag_64:\n        /* \"#utility.yul\":6998:7037   */\n      tag_151\n        /* \"#utility.yul\":7029:7036   */\n      dup4\n        /* \"#utility.yul\":6998:7037   */\n      tag_62\n      jump\t// in\n    tag_151:\n        /* \"#utility.yul\":7059:7150   */\n      tag_152\n        /* \"#utility.yul\":7108:7149   */\n      tag_153\n        /* \"#utility.yul\":7132:7148   */\n      dup3\n        /* \"#utility.yul\":7108:7149   */\n      tag_63\n      jump\t// in\n    tag_153:\n        /* \"#utility.yul\":7100:7106   */\n      dup5\n        /* \"#utility.yul\":7093:7097   */\n      dup5\n        /* \"#utility.yul\":7087:7098   */\n      sload\n        /* \"#utility.yul\":7059:7150   */\n      tag_60\n      jump\t// in\n    tag_152:\n        /* \"#utility.yul\":7053:7057   */\n      dup3\n        /* \"#utility.yul\":7046:7151   */\n      sstore\n        /* \"#utility.yul\":6964:7157   */\n      pop\n        /* \"#utility.yul\":6888:7157   */\n      pop\n      pop\n      pop\n      jump\t// out\n        /* \"#utility.yul\":7163:7236   */\n    tag_65:\n        /* \"#utility.yul\":7208:7211   */\n      0x00\n        /* \"#utility.yul\":7163:7236   */\n      swap1\n      jump\t// out\n        /* \"#utility.yul\":7242:7431   */\n    tag_66:\n        /* \"#utility.yul\":7319:7351   */\n      tag_156\n      tag_65\n      jump\t// in\n    tag_156:\n        /* \"#utility.yul\":7360:7425   */\n      tag_157\n        /* \"#utility.yul\":7418:7424   */\n      dup2\n        /* \"#utility.yul\":7410:7416   */\n      dup5\n        /* \"#utility.yul\":7404:7408   */\n      dup5\n        /* \"#utility.yul\":7360:7425   */\n      tag_64\n      jump\t// in\n    tag_157:\n        /* \"#utility.yul\":7295:7431   */\n      pop\n        /* \"#utility.yul\":7242:7431   */\n      pop\n      pop\n      jump\t// out\n        /* \"#utility.yul\":7437:7623   */\n    tag_67:\n        /* \"#utility.yul\":7497:7617   */\n    tag_159:\n        /* \"#utility.yul\":7514:7517   */\n      dup2\n        /* \"#utility.yul\":7507:7512   */\n      dup2\n        /* \"#utility.yul\":7504:7518   */\n      lt\n        /* \"#utility.yul\":7497:7617   */\n      iszero\n      tag_161\n      jumpi\n        /* \"#utility.yul\":7568:7607   */\n      tag_162\n        /* \"#utility.yul\":7605:7606   */\n      0x00\n        /* \"#utility.yul\":7598:7603   */\n      dup3\n        /* \"#utility.yul\":7568:7607   */\n      tag_66\n      jump\t// in\n    tag_162:\n        /* \"#utility.yul\":7541:7542   */\n      0x01\n        /* \"#utility.yul\":7534:7539   */\n      dup2\n        /* \"#utility.yul\":7530:7543   */\n      add\n        /* \"#utility.yul\":7521:7543   */\n      swap1\n      pop\n        /* \"#utility.yul\":7497:7617   */\n      jump(tag_159)\n    tag_161:\n        /* \"#utility.yul\":7437:7623   */\n      pop\n      pop\n      jump\t// out\n        /* \"#utility.yul\":7629:8172   */\n    tag_68:\n        /* \"#utility.yul\":7730:7732   */\n      0x1f\n        /* \"#utility.yul\":7725:7728   */\n      dup3\n        /* \"#utility.yul\":7722:7733   */\n      gt\n        /* \"#utility.yul\":7719:8165   */\n      iszero\n      tag_164\n      jumpi\n        /* \"#utility.yul\":7764:7802   */\n      tag_165\n        /* \"#utility.yul\":7796:7801   */\n      dup2\n        /* \"#utility.yul\":7764:7802   */\n      tag_57\n      jump\t// in\n    tag_165:\n        /* \"#utility.yul\":7848:7877   */\n      tag_166\n        /* \"#utility.yul\":7866:7876   */\n      dup5\n        /* \"#utility.yul\":7848:7877   */\n      tag_58\n      jump\t// in\n    tag_166:\n        /* \"#utility.yul\":7838:7846   */\n      dup2\n        /* \"#utility.yul\":7834:7878   */\n      add\n        /* \"#utility.yul\":8031:8033   */\n      0x20\n        /* \"#utility.yul\":8019:8029   */\n      dup6\n        /* \"#utility.yul\":8016:8034   */\n      lt\n        /* \"#utility.yul\":8013:8062   */\n      iszero\n      tag_167\n      jumpi\n        /* \"#utility.yul\":8052:8060   */\n      dup2\n        /* \"#utility.yul\":8037:8060   */\n      swap1\n      pop\n        /* \"#utility.yul\":8013:8062   */\n    tag_167:\n        /* \"#utility.yul\":8075:8155   */\n      tag_168\n        /* \"#utility.yul\":8131:8153   */\n      tag_169\n        /* \"#utility.yul\":8149:8152   */\n      dup6\n        /* \"#utility.yul\":8131:8153   */\n      tag_58\n      jump\t// in\n    tag_169:\n        /* \"#utility.yul\":8121:8129   */\n      dup4\n        /* \"#utility.yul\":8117:8154   */\n      add\n        /* \"#utility.yul\":8104:8115   */\n      dup3\n        /* \"#utility.yul\":8075:8155   */\n      tag_67\n      jump\t// in\n    tag_168:\n        /* \"#utility.yul\":7734:8165   */\n      pop\n      pop\n        /* \"#utility.yul\":7719:8165   */\n    tag_164:\n        /* \"#utility.yul\":7629:8172   */\n      pop\n      pop\n      pop\n      jump\t// out\n        /* \"#utility.yul\":8178:8295   */\n    tag_69:\n        /* \"#utility.yul\":8232:8240   */\n      0x00\n        /* \"#utility.yul\":8282:8287   */\n      dup3\n        /* \"#utility.yul\":8276:8280   */\n      dup3\n        /* \"#utility.yul\":8272:8288   */\n      shr\n        /* \"#utility.yul\":8251:8288   */\n      swap1\n      pop\n        /* \"#utility.yul\":8178:8295   */\n      swap3\n      swap2\n      pop\n      pop\n      jump\t// out\n        /* \"#utility.yul\":8301:8470   */\n    tag_70:\n        /* \"#utility.yul\":8345:8351   */\n      0x00\n        /* \"#utility.yul\":8378:8429   */\n      tag_172\n        /* \"#utility.yul\":8426:8427   */\n      0x00\n        /* \"#utility.yul\":8422:8428   */\n      not\n        /* \"#utility.yul\":8414:8419   */\n      dup5\n        /* \"#utility.yul\":8411:8412   */\n      0x08\n        /* \"#utility.yul\":8407:8420   */\n      mul\n        /* \"#utility.yul\":8378:8429   */\n      tag_69\n      jump\t// in\n    tag_172:\n        /* \"#utility.yul\":8374:8430   */\n      not\n        /* \"#utility.yul\":8459:8463   */\n      dup1\n        /* \"#utility.yul\":8453:8457   */\n      dup4\n        /* \"#utility.yul\":8449:8464   */\n      and\n        /* \"#utility.yul\":8439:8464   */\n      swap2\n      pop\n        /* \"#utility.yul\":8352:8470   */\n      pop\n        /* \"#utility.yul\":8301:8470   */\n      swap3\n      swap2\n      pop\n      pop\n      jump\t// out\n        /* \"#utility.yul\":8475:8770   */\n    tag_71:\n        /* \"#utility.yul\":8551:8555   */\n      0x00\n        /* \"#utility.yul\":8697:8726   */\n      tag_174\n        /* \"#utility.yul\":8722:8725   */\n      dup4\n        /* \"#utility.yul\":8716:8720   */\n      dup4\n        /* \"#utility.yul\":8697:8726   */\n      tag_70\n      jump\t// in\n    tag_174:\n        /* \"#utility.yul\":8689:8726   */\n      swap2\n      pop\n        /* \"#utility.yul\":8759:8762   */\n      dup3\n        /* \"#utility.yul\":8756:8757   */\n      0x02\n        /* \"#utility.yul\":8752:8763   */\n      mul\n        /* \"#utility.yul\":8746:8750   */\n      dup3\n        /* \"#utility.yul\":8743:8764   */\n      or\n        /* \"#utility.yul\":8735:8764   */\n      swap1\n      pop\n        /* \"#utility.yul\":8475:8770   */\n      swap3\n      swap2\n      pop\n      pop\n      jump\t// out\n        /* \"#utility.yul\":8775:10170   */\n    tag_33:\n        /* \"#utility.yul\":8892:8929   */\n      tag_176\n        /* \"#utility.yul\":8925:8928   */\n      dup3\n        /* \"#utility.yul\":8892:8929   */\n      tag_36\n      jump\t// in\n    tag_176:\n        /* \"#utility.yul\":8994:9012   */\n      0xffffffffffffffff\n        /* \"#utility.yul\":8986:8992   */\n      dup2\n        /* \"#utility.yul\":8983:9013   */\n      gt\n        /* \"#utility.yul\":8980:9036   */\n      iszero\n      tag_177\n      jumpi\n        /* \"#utility.yul\":9016:9034   */\n      tag_178\n      tag_49\n      jump\t// in\n    tag_178:\n        /* \"#utility.yul\":8980:9036   */\n    tag_177:\n        /* \"#utility.yul\":9060:9098   */\n      tag_179\n        /* \"#utility.yul\":9092:9096   */\n      dup3\n        /* \"#utility.yul\":9086:9097   */\n      sload\n        /* \"#utility.yul\":9060:9098   */\n      tag_26\n      jump\t// in\n    tag_179:\n        /* \"#utility.yul\":9145:9212   */\n      tag_180\n        /* \"#utility.yul\":9205:9211   */\n      dup3\n        /* \"#utility.yul\":9197:9203   */\n      dup3\n        /* \"#utility.yul\":9191:9195   */\n      dup6\n        /* \"#utility.yul\":9145:9212   */\n      tag_68\n      jump\t// in\n    tag_180:\n        /* \"#utility.yul\":9239:9240   */\n      0x00\n        /* \"#utility.yul\":9263:9267   */\n      0x20\n        /* \"#utility.yul\":9250:9267   */\n      swap1\n      pop\n        /* \"#utility.yul\":9295:9297   */\n      0x1f\n        /* \"#utility.yul\":9287:9293   */\n      dup4\n        /* \"#utility.yul\":9284:9298   */\n      gt\n        /* \"#utility.yul\":9312:9313   */\n      0x01\n        /* \"#utility.yul\":9307:9925   */\n      dup2\n      eq\n      tag_182\n      jumpi\n        /* \"#utility.yul\":9969:9970   */\n      0x00\n        /* \"#utility.yul\":9986:9992   */\n      dup5\n        /* \"#utility.yul\":9983:10060   */\n      iszero\n      tag_183\n      jumpi\n        /* \"#utility.yul\":10035:10044   */\n      dup3\n        /* \"#utility.yul\":10030:10033   */\n      dup8\n        /* \"#utility.yul\":10026:10045   */\n      add\n        /* \"#utility.yul\":10020:10046   */\n      mload\n        /* \"#utility.yul\":10011:10046   */\n      swap1\n      pop\n        /* \"#utility.yul\":9983:10060   */\n    tag_183:\n        /* \"#utility.yul\":10086:10153   */\n      tag_184\n        /* \"#utility.yul\":10146:10152   */\n      dup6\n        /* \"#utility.yul\":10139:10144   */\n      dup3\n        /* \"#utility.yul\":10086:10153   */\n      tag_71\n      jump\t// in\n    tag_184:\n        /* \"#utility.yul\":10080:10084   */\n      dup7\n        /* \"#utility.yul\":10073:10154   */\n      sstore\n        /* \"#utility.yul\":9942:10164   */\n      pop\n        /* \"#utility.yul\":9277:10164   */\n      jump(tag_181)\n        /* \"#utility.yul\":9307:9925   */\n    tag_182:\n        /* \"#utility.yul\":9359:9363   */\n      0x1f\n        /* \"#utility.yul\":9355:9364   */\n      not\n        /* \"#utility.yul\":9347:9353   */\n      dup5\n        /* \"#utility.yul\":9343:9365   */\n      and\n        /* \"#utility.yul\":9393:9430   */\n      tag_185\n        /* \"#utility.yul\":9425:9429   */\n      dup7\n        /* \"#utility.yul\":9393:9430   */\n      tag_57\n      jump\t// in\n    tag_185:\n        /* \"#utility.yul\":9452:9453   */\n      0x00\n        /* \"#utility.yul\":9466:9674   */\n    tag_186:\n        /* \"#utility.yul\":9480:9487   */\n      dup3\n        /* \"#utility.yul\":9477:9478   */\n      dup2\n        /* \"#utility.yul\":9474:9488   */\n      lt\n        /* \"#utility.yul\":9466:9674   */\n      iszero\n      tag_188\n      jumpi\n        /* \"#utility.yul\":9559:9568   */\n      dup5\n        /* \"#utility.yul\":9554:9557   */\n      dup10\n        /* \"#utility.yul\":9550:9569   */\n      add\n        /* \"#utility.yul\":9544:9570   */\n      mload\n        /* \"#utility.yul\":9536:9542   */\n      dup3\n        /* \"#utility.yul\":9529:9571   */\n      sstore\n        /* \"#utility.yul\":9610:9611   */\n      0x01\n        /* \"#utility.yul\":9602:9608   */\n      dup3\n        /* \"#utility.yul\":9598:9612   */\n      add\n        /* \"#utility.yul\":9588:9612   */\n      swap2\n      pop\n        /* \"#utility.yul\":9657:9659   */\n      0x20\n        /* \"#utility.yul\":9646:9655   */\n      dup6\n        /* \"#utility.yul\":9642:9660   */\n      add\n        /* \"#utility.yul\":9629:9660   */\n      swap5\n      pop\n        /* \"#utility.yul\":9503:9507   */\n      0x20\n        /* \"#utility.yul\":9500:9501   */\n      dup2\n        /* \"#utility.yul\":9496:9508   */\n      add\n        /* \"#utility.yul\":9491:9508   */\n      swap1\n      pop\n        /* \"#utility.yul\":9466:9674   */\n      jump(tag_186)\n    tag_188:\n        /* \"#utility.yul\":9702:9708   */\n      dup7\n        /* \"#utility.yul\":9693:9700   */\n      dup4\n        /* \"#utility.yul\":9690:9709   */\n      lt\n        /* \"#utility.yul\":9687:9866   */\n      iszero\n      tag_189\n      jumpi\n        /* \"#utility.yul\":9760:9769   */\n      dup5\n        /* \"#utility.yul\":9755:9758   */\n      dup10\n        /* \"#utility.yul\":9751:9770   */\n      add\n        /* \"#utility.yul\":9745:9771   */\n      mload\n        /* \"#utility.yul\":9803:9851   */\n      tag_190\n        /* \"#utility.yul\":9845:9849   */\n      0x1f\n        /* \"#utility.yul\":9837:9843   */\n      dup10\n        /* \"#utility.yul\":9833:9850   */\n      and\n        /* \"#utility.yul\":9822:9831   */\n      dup3\n        /* \"#utility.yul\":9803:9851   */\n      tag_70\n      jump\t// in\n    tag_190:\n        /* \"#utility.yul\":9795:9801   */\n      dup4\n        /* \"#utility.yul\":9788:9852   */\n      sstore\n        /* \"#utility.yul\":9710:9866   */\n      pop\n        /* \"#utility.yul\":9687:9866   */\n    tag_189:\n        /* \"#utility.yul\":9912:9913   */\n      0x01\n        /* \"#utility.yul\":9908:9909   */\n      0x02\n        /* \"#utility.yul\":9900:9906   */\n      dup9\n        /* \"#utility.yul\":9896:9910   */\n      mul\n        /* \"#utility.yul\":9892:9914   */\n      add\n        /* \"#utility.yul\":9886:9890   */\n      dup9\n        /* \"#utility.yul\":9879:9915   */\n      sstore\n        /* \"#utility.yul\":9314:9925   */\n      pop\n      pop\n      pop\n        /* \"#utility.yul\":9277:10164   */\n    tag_181:\n      pop\n        /* \"#utility.yul\":8867:10170   */\n      pop\n      pop\n      pop\n        /* \"#utility.yul\":8775:10170   */\n      pop\n      pop\n      jump\t// out\n\n    auxdata: 0xa2646970667358221220e48445142672977ee5ece9b577b80adc4ab56bcfbc16904921fa8cb31fa0828364736f6c63430008120033\n}\n",
				"bytecode": {
					"linkReferences": {},
					"object": "608060405234801561001057600080fd5b506107de806100206000396000f3fe60806040526004361061003f5760003560e01c80633fa4f245146100445780634e70b1dc1461006f57806367e404ce1461009a578063dcd4c72e146100c5575b600080fd5b34801561005057600080fd5b506100596100e1565b604051610066919061020f565b60405180910390f35b34801561007b57600080fd5b506100846100e7565b60405161009191906102ba565b60405180910390f35b3480156100a657600080fd5b506100af610175565b6040516100bc919061031d565b60405180910390f35b6100df60048036038101906100da9190610481565b61019b565b005b60025481565b600080546100f4906104f9565b80601f0160208091040260200160405190810160405280929190818152602001828054610120906104f9565b801561016d5780601f106101425761010080835404028352916020019161016d565b820191906000526020600020905b81548152906001019060200180831161015057829003601f168201915b505050505081565b600160009054906101000a900473ffffffffffffffffffffffffffffffffffffffff1681565b80600090816101aa91906106d6565b5033600160006101000a81548173ffffffffffffffffffffffffffffffffffffffff021916908373ffffffffffffffffffffffffffffffffffffffff1602179055503460028190555050565b6000819050919050565b610209816101f6565b82525050565b60006020820190506102246000830184610200565b92915050565b600081519050919050565b600082825260208201905092915050565b60005b83811015610264578082015181840152602081019050610249565b60008484015250505050565b6000601f19601f8301169050919050565b600061028c8261022a565b6102968185610235565b93506102a6818560208601610246565b6102af81610270565b840191505092915050565b600060208201905081810360008301526102d48184610281565b905092915050565b600073ffffffffffffffffffffffffffffffffffffffff82169050919050565b6000610307826102dc565b9050919050565b610317816102fc565b82525050565b6000602082019050610332600083018461030e565b92915050565b6000604051905090565b600080fd5b600080fd5b600080fd5b600080fd5b7f4e487b7100000000000000000000000000000000000000000000000000000000600052604160045260246000fd5b61038e82610270565b810181811067ffffffffffffffff821117156103ad576103ac610356565b5b80604052505050565b60006103c0610338565b90506103cc8282610385565b919050565b600067ffffffffffffffff8211156103ec576103eb610356565b5b6103f582610270565b9050602081019050919050565b82818337600083830152505050565b600061042461041f846103d1565b6103b6565b9050828152602081018484840111156104405761043f610351565b5b61044b848285610402565b509392505050565b600082601f8301126104685761046761034c565b5b8135610478848260208601610411565b91505092915050565b60006020828403121561049757610496610342565b5b600082013567ffffffffffffffff8111156104b5576104b4610347565b5b6104c184828501610453565b91505092915050565b7f4e487b7100000000000000000000000000000000000000000000000000000000600052602260045260246000fd5b6000600282049050600182168061051157607f821691505b602082108103610524576105236104ca565b5b50919050565b60008190508160005260206000209050919050565b60006020601f8301049050919050565b600082821b905092915050565b60006008830261058c7fffffffffffffffffffffffffffffffffffffffffffffffffffffffffffffffff8261054f565b610596868361054f565b95508019841693508086168417925050509392505050565b6000819050919050565b60006105d36105ce6105c9846101f6565b6105ae565b6101f6565b9050919050565b6000819050919050565b6105ed836105b8565b6106016105f9826105da565b84845461055c565b825550505050565b600090565b610616610609565b6106218184846105e4565b505050565b5b818110156106455761063a60008261060e565b600181019050610627565b5050565b601f82111561068a5761065b8161052a565b6106648461053f565b81016020851015610673578190505b61068761067f8561053f565b830182610626565b50505b505050565b600082821c905092915050565b60006106ad6000198460080261068f565b1980831691505092915050565b60006106c6838361069c565b9150826002028217905092915050565b6106df8261022a565b67ffffffffffffffff8111156106f8576106f7610356565b5b61070282546104f9565b61070d828285610649565b600060209050601f831160018114610740576000841561072e578287015190505b61073885826106ba565b8655506107a0565b601f19841661074e8661052a565b60005b8281101561077657848901518255600182019150602085019450602081019050610751565b86831015610793578489015161078f601f89168261069c565b8355505b6001600288020188555050505b50505050505056fea2646970667358221220e48445142672977ee5ece9b577b80adc4ab56bcfbc16904921fa8cb31fa0828364736f6c63430008120033",
					"opcodes": "PUSH1 0x80 PUSH1 0x40 MSTORE CALLVALUE DUP1 ISZERO PUSH2 0x10 JUMPI PUSH1 0x0 DUP1 REVERT JUMPDEST POP PUSH2 0x7DE DUP1 PUSH2 0x20 PUSH1 0x0 CODECOPY PUSH1 0x0 RETURN INVALID PUSH1 0x80 PUSH1 0x40 MSTORE PUSH1 0x4 CALLDATASIZE LT PUSH2 0x3F JUMPI PUSH1 0x0 CALLDATALOAD PUSH1 0xE0 SHR DUP1 PUSH4 0x3FA4F245 EQ PUSH2 0x44 JUMPI DUP1 PUSH4 0x4E70B1DC EQ PUSH2 0x6F JUMPI DUP1 PUSH4 0x67E404CE EQ PUSH2 0x9A JUMPI DUP1 PUSH4 0xDCD4C72E EQ PUSH2 0xC5 JUMPI JUMPDEST PUSH1 0x0 DUP1 REVERT JUMPDEST CALLVALUE DUP1 ISZERO PUSH2 0x50 JUMPI PUSH1 0x0 DUP1 REVERT JUMPDEST POP PUSH2 0x59 PUSH2 0xE1 JUMP JUMPDEST PUSH1 0x40 MLOAD PUSH2 0x66 SWAP2 SWAP1 PUSH2 0x20F JUMP JUMPDEST PUSH1 0x40 MLOAD DUP1 SWAP2 SUB SWAP1 RETURN JUMPDEST CALLVALUE DUP1 ISZERO PUSH2 0x7B JUMPI PUSH1 0x0 DUP1 REVERT JUMPDEST POP PUSH2 0x84 PUSH2 0xE7 JUMP JUMPDEST PUSH1 0x40 MLOAD PUSH2 0x91 SWAP2 SWAP1 PUSH2 0x2BA JUMP JUMPDEST PUSH1 0x40 MLOAD DUP1 SWAP2 SUB SWAP1 RETURN JUMPDEST CALLVALUE DUP1 ISZERO PUSH2 0xA6 JUMPI PUSH1 0x0 DUP1 REVERT JUMPDEST POP PUSH2 0xAF PUSH2 0x175 JUMP JUMPDEST PUSH1 0x40 MLOAD PUSH2 0xBC SWAP2 SWAP1 PUSH2 0x31D JUMP JUMPDEST PUSH1 0x40 MLOAD DUP1 SWAP2 SUB SWAP1 RETURN JUMPDEST PUSH2 0xDF PUSH1 0x4 DUP1 CALLDATASIZE SUB DUP2 ADD SWAP1 PUSH2 0xDA SWAP2 SWAP1 PUSH2 0x481 JUMP JUMPDEST PUSH2 0x19B JUMP JUMPDEST STOP JUMPDEST PUSH1 0x2 SLOAD DUP2 JUMP JUMPDEST PUSH1 0x0 DUP1 SLOAD PUSH2 0xF4 SWAP1 PUSH2 0x4F9 JUMP JUMPDEST DUP1 PUSH1 0x1F ADD PUSH1 0x20 DUP1 SWAP2 DIV MUL PUSH1 0x20 ADD PUSH1 0x40 MLOAD SWAP1 DUP2 ADD PUSH1 0x40 MSTORE DUP1 SWAP3 SWAP2 SWAP1 DUP2 DUP2 MSTORE PUSH1 0x20 ADD DUP3 DUP1 SLOAD PUSH2 0x120 SWAP1 PUSH2 0x4F9 JUMP JUMPDEST DUP1 ISZERO PUSH2 0x16D JUMPI DUP1 PUSH1 0x1F LT PUSH2 0x142 JUMPI PUSH2 0x100 DUP1 DUP4 SLOAD DIV MUL DUP4 MSTORE SWAP2 PUSH1 0x20 ADD SWAP2 PUSH2 0x16D JUMP JUMPDEST DUP3 ADD SWAP2 SWAP1 PUSH1 0x0 MSTORE PUSH1 0x20 PUSH1 0x0 KECCAK256 SWAP1 JUMPDEST DUP2 SLOAD DUP2 MSTORE SWAP1 PUSH1 0x1 ADD SWAP1 PUSH1 0x20 ADD DUP1 DUP4 GT PUSH2 0x150 JUMPI DUP3 SWAP1 SUB PUSH1 0x1F AND DUP3 ADD SWAP2 JUMPDEST POP POP POP POP POP DUP2 JUMP JUMPDEST PUSH1 0x1 PUSH1 0x0 SWAP1 SLOAD SWAP1 PUSH2 0x100 EXP SWAP1 DIV PUSH20 0xFFFFFFFFFFFFFFFFFFFFFFFFFFFFFFFFFFFFFFFF AND DUP2 JUMP JUMPDEST DUP1 PUSH1 0x0 SWAP1 DUP2 PUSH2 0x1AA SWAP2 SWAP1 PUSH2 0x6D6 JUMP JUMPDEST POP CALLER PUSH1 0x1 PUSH1 0x0 PUSH2 0x100 EXP DUP2 SLOAD DUP2 PUSH20 0xFFFFFFFFFFFFFFFFFFFFFFFFFFFFFFFFFFFFFFFF MUL NOT AND SWAP1 DUP4 PUSH20 0xFFFFFFFFFFFFFFFFFFFFFFFFFFFFFFFFFFFFFFFF AND MUL OR SWAP1 SSTORE POP CALLVALUE PUSH1 0x2 DUP2 SWAP1 SSTORE POP POP JUMP JUMPDEST PUSH1 0x0 DUP2 SWAP1 POP SWAP2 SWAP1 POP JUMP JUMPDEST PUSH2 0x209 DUP2 PUSH2 0x1F6 JUMP JUMPDEST DUP3 MSTORE POP POP JUMP JUMPDEST PUSH1 0x0 PUSH1 0x20 DUP3 ADD SWAP1 POP PUSH2 0x224 PUSH1 0x0 DUP4 ADD DUP5 PUSH2 0x200 JUMP JUMPDEST SWAP3 SWAP2 POP POP JUMP JUMPDEST PUSH1 0x0 DUP2 MLOAD SWAP1 POP SWAP2 SWAP1 POP JUMP JUMPDEST PUSH1 0x0 DUP3 DUP3 MSTORE PUSH1 0x20 DUP3 ADD SWAP1 POP SWAP3 SWAP2 POP POP JUMP JUMPDEST PUSH1 0x0 JUMPDEST DUP4 DUP2 LT ISZERO PUSH2 0x264 JUMPI DUP1 DUP3 ADD MLOAD DUP2 DUP5 ADD MSTORE PUSH1 0x20 DUP2 ADD SWAP1 POP PUSH2 0x249 JUMP JUMPDEST PUSH1 0x0 DUP5 DUP5 ADD MSTORE POP POP POP POP JUMP JUMPDEST PUSH1 0x0 PUSH1 0x1F NOT PUSH1 0x1F DUP4 ADD AND SWAP1 POP SWAP2 SWAP1 POP JUMP JUMPDEST PUSH1 0x0 PUSH2 0x28C DUP3 PUSH2 0x22A JUMP JUMPDEST PUSH2 0x296 DUP2 DUP6 PUSH2 0x235 JUMP JUMPDEST SWAP4 POP PUSH2 0x2A6 DUP2 DUP6 PUSH1 0x20 DUP7 ADD PUSH2 0x246 JUMP JUMPDEST PUSH2 0x2AF DUP2 PUSH2 0x270 JUMP JUMPDEST DUP5 ADD SWAP2 POP POP SWAP3 SWAP2 POP POP JUMP JUMPDEST PUSH1 0x0 PUSH1 0x20 DUP3 ADD SWAP1 POP DUP2 DUP2 SUB PUSH1 0x0 DUP4 ADD MSTORE PUSH2 0x2D4 DUP2 DUP5 PUSH2 0x281 JUMP JUMPDEST SWAP1 POP SWAP3 SWAP2 POP POP JUMP JUMPDEST PUSH1 0x0 PUSH20 0xFFFFFFFFFFFFFFFFFFFFFFFFFFFFFFFFFFFFFFFF DUP3 AND SWAP1 POP SWAP2 SWAP1 POP JUMP JUMPDEST PUSH1 0x0 PUSH2 0x307 DUP3 PUSH2 0x2DC JUMP JUMPDEST SWAP1 POP SWAP2 SWAP1 POP JUMP JUMPDEST PUSH2 0x317 DUP2 PUSH2 0x2FC JUMP JUMPDEST DUP3 MSTORE POP POP JUMP JUMPDEST PUSH1 0x0 PUSH1 0x20 DUP3 ADD SWAP1 POP PUSH2 0x332 PUSH1 0x0 DUP4 ADD DUP5 PUSH2 0x30E JUMP JUMPDEST SWAP3 SWAP2 POP POP JUMP JUMPDEST PUSH1 0x0 PUSH1 0x40 MLOAD SWAP1 POP SWAP1 JUMP JUMPDEST PUSH1 0x0 DUP1 REVERT JUMPDEST PUSH1 0x0 DUP1 REVERT JUMPDEST PUSH1 0x0 DUP1 REVERT JUMPDEST PUSH1 0x0 DUP1 REVERT JUMPDEST PUSH32 0x4E487B7100000000000000000000000000000000000000000000000000000000 PUSH1 0x0 MSTORE PUSH1 0x41 PUSH1 0x4 MSTORE PUSH1 0x24 PUSH1 0x0 REVERT JUMPDEST PUSH2 0x38E DUP3 PUSH2 0x270 JUMP JUMPDEST DUP2 ADD DUP2 DUP2 LT PUSH8 0xFFFFFFFFFFFFFFFF DUP3 GT OR ISZERO PUSH2 0x3AD JUMPI PUSH2 0x3AC PUSH2 0x356 JUMP JUMPDEST JUMPDEST DUP1 PUSH1 0x40 MSTORE POP POP POP JUMP JUMPDEST PUSH1 0x0 PUSH2 0x3C0 PUSH2 0x338 JUMP JUMPDEST SWAP1 POP PUSH2 0x3CC DUP3 DUP3 PUSH2 0x385 JUMP JUMPDEST SWAP2 SWAP1 POP JUMP JUMPDEST PUSH1 0x0 PUSH8 0xFFFFFFFFFFFFFFFF DUP3 GT ISZERO PUSH2 0x3EC JUMPI PUSH2 0x3EB PUSH2 0x356 JUMP JUMPDEST JUMPDEST PUSH2 0x3F5 DUP3 PUSH2 0x270 JUMP JUMPDEST SWAP1 POP PUSH1 0x20 DUP2 ADD SWAP1 POP SWAP2 SWAP1 POP JUMP JUMPDEST DUP3 DUP2 DUP4 CALLDATACOPY PUSH1 0x0 DUP4 DUP4 ADD MSTORE POP POP POP JUMP JUMPDEST PUSH1 0x0 PUSH2 0x424 PUSH2 0x41F DUP5 PUSH2 0x3D1 JUMP JUMPDEST PUSH2 0x3B6 JUMP JUMPDEST SWAP1 POP DUP3 DUP2 MSTORE PUSH1 0x20 DUP2 ADD DUP5 DUP5 DUP5 ADD GT ISZERO PUSH2 0x440 JUMPI PUSH2 0x43F PUSH2 0x351 JUMP JUMPDEST JUMPDEST PUSH2 0x44B DUP5 DUP3 DUP6 PUSH2 0x402 JUMP JUMPDEST POP SWAP4 SWAP3 POP POP POP JUMP JUMPDEST PUSH1 0x0 DUP3 PUSH1 0x1F DUP4 ADD SLT PUSH2 0x468 JUMPI PUSH2 0x467 PUSH2 0x34C JUMP JUMPDEST JUMPDEST DUP2 CALLDATALOAD PUSH2 0x478 DUP5 DUP3 PUSH1 0x20 DUP7 ADD PUSH2 0x411 JUMP JUMPDEST SWAP2 POP POP SWAP3 SWAP2 POP POP JUMP JUMPDEST PUSH1 0x0 PUSH1 0x20 DUP3 DUP5 SUB SLT ISZERO PUSH2 0x497 JUMPI PUSH2 0x496 PUSH2 0x342 JUMP JUMPDEST JUMPDEST PUSH1 0x0 DUP3 ADD CALLDATALOAD PUSH8 0xFFFFFFFFFFFFFFFF DUP2 GT ISZERO PUSH2 0x4B5 JUMPI PUSH2 0x4B4 PUSH2 0x347 JUMP JUMPDEST JUMPDEST PUSH2 0x4C1 DUP5 DUP3 DUP6 ADD PUSH2 0x453 JUMP JUMPDEST SWAP2 POP POP SWAP3 SWAP2 POP POP JUMP JUMPDEST PUSH32 0x4E487B7100000000000000000000000000000000000000000000000000000000 PUSH1 0x0 MSTORE PUSH1 0x22 PUSH1 0x4 MSTORE PUSH1 0x24 PUSH1 0x0 REVERT JUMPDEST PUSH1 0x0 PUSH1 0x2 DUP3 DIV SWAP1 POP PUSH1 0x1 DUP3 AND DUP1 PUSH2 0x511 JUMPI PUSH1 0x7F DUP3 AND SWAP2 POP JUMPDEST PUSH1 0x20 DUP3 LT DUP2 SUB PUSH2 0x524 JUMPI PUSH2 0x523 PUSH2 0x4CA JUMP JUMPDEST JUMPDEST POP SWAP2 SWAP1 POP JUMP JUMPDEST PUSH1 0x0 DUP2 SWAP1 POP DUP2 PUSH1 0x0 MSTORE PUSH1 0x20 PUSH1 0x0 KECCAK256 SWAP1 POP SWAP2 SWAP1 POP JUMP JUMPDEST PUSH1 0x0 PUSH1 0x20 PUSH1 0x1F DUP4 ADD DIV SWAP1 POP SWAP2 SWAP1 POP JUMP JUMPDEST PUSH1 0x0 DUP3 DUP3 SHL SWAP1 POP SWAP3 SWAP2 POP POP JUMP JUMPDEST PUSH1 0x0 PUSH1 0x8 DUP4 MUL PUSH2 0x58C PUSH32 0xFFFFFFFFFFFFFFFFFFFFFFFFFFFFFFFFFFFFFFFFFFFFFFFFFFFFFFFFFFFFFFFF DUP3 PUSH2 0x54F JUMP JUMPDEST PUSH2 0x596 DUP7 DUP4 PUSH2 0x54F JUMP JUMPDEST SWAP6 POP DUP1 NOT DUP5 AND SWAP4 POP DUP1 DUP7 AND DUP5 OR SWAP3 POP POP POP SWAP4 SWAP3 POP POP POP JUMP JUMPDEST PUSH1 0x0 DUP2 SWAP1 POP SWAP2 SWAP1 POP JUMP JUMPDEST PUSH1 0x0 PUSH2 0x5D3 PUSH2 0x5CE PUSH2 0x5C9 DUP5 PUSH2 0x1F6 JUMP JUMPDEST PUSH2 0x5AE JUMP JUMPDEST PUSH2 0x1F6 JUMP JUMPDEST SWAP1 POP SWAP2 SWAP1 POP JUMP JUMPDEST PUSH1 0x0 DUP2 SWAP1 POP SWAP2 SWAP1 POP JUMP JUMPDEST PUSH2 0x5ED DUP4 PUSH2 0x5B8 JUMP JUMPDEST PUSH2 0x601 PUSH2 0x5F9 DUP3 PUSH2 0x5DA JUMP JUMPDEST DUP5 DUP5 SLOAD PUSH2 0x55C JUMP JUMPDEST DUP3 SSTORE POP POP POP POP JUMP JUMPDEST PUSH1 0x0 SWAP1 JUMP JUMPDEST PUSH2 0x616 PUSH2 0x609 JUMP JUMPDEST PUSH2 0x621 DUP2 DUP5 DUP5 PUSH2 0x5E4 JUMP JUMPDEST POP POP POP JUMP JUMPDEST JUMPDEST DUP2 DUP2 LT ISZERO PUSH2 0x645 JUMPI PUSH2 0x63A PUSH1 0x0 DUP3 PUSH2 0x60E JUMP JUMPDEST PUSH1 0x1 DUP2 ADD SWAP1 POP PUSH2 0x627 JUMP JUMPDEST POP POP JUMP JUMPDEST PUSH1 0x1F DUP3 GT ISZERO PUSH2 0x68A JUMPI PUSH2 0x65B DUP2 PUSH2 0x52A JUMP JUMPDEST PUSH2 0x664 DUP5 PUSH2 0x53F JUMP JUMPDEST DUP2 ADD PUSH1 0x20 DUP6 LT ISZERO PUSH2 0x673 JUMPI DUP2 SWAP1 POP JUMPDEST PUSH2 0x687 PUSH2 0x67F DUP6 PUSH2 0x53F JUMP JUMPDEST DUP4 ADD DUP3 PUSH2 0x626 JUMP JUMPDEST POP POP JUMPDEST POP POP POP JUMP JUMPDEST PUSH1 0x0 DUP3 DUP3 SHR SWAP1 POP SWAP3 SWAP2 POP POP JUMP JUMPDEST PUSH1 0x0 PUSH2 0x6AD PUSH1 0x0 NOT DUP5 PUSH1 0x8 MUL PUSH2 0x68F JUMP JUMPDEST NOT DUP1 DUP4 AND SWAP2 POP POP SWAP3 SWAP2 POP POP JUMP JUMPDEST PUSH1 0x0 PUSH2 0x6C6 DUP4 DUP4 PUSH2 0x69C JUMP JUMPDEST SWAP2 POP DUP3 PUSH1 0x2 MUL DUP3 OR SWAP1 POP SWAP3 SWAP2 POP POP JUMP JUMPDEST PUSH2 0x6DF DUP3 PUSH2 0x22A JUMP JUMPDEST PUSH8 0xFFFFFFFFFFFFFFFF DUP2 GT ISZERO PUSH2 0x6F8 JUMPI PUSH2 0x6F7 PUSH2 0x356 JUMP JUMPDEST JUMPDEST PUSH2 0x702 DUP3 SLOAD PUSH2 0x4F9 JUMP JUMPDEST PUSH2 0x70D DUP3 DUP3 DUP6 PUSH2 0x649 JUMP JUMPDEST PUSH1 0x0 PUSH1 0x20 SWAP1 POP PUSH1 0x1F DUP4 GT PUSH1 0x1 DUP2 EQ PUSH2 0x740 JUMPI PUSH1 0x0 DUP5 ISZERO PUSH2 0x72E JUMPI DUP3 DUP8 ADD MLOAD SWAP1 POP JUMPDEST PUSH2 0x738 DUP6 DUP3 PUSH2 0x6BA JUMP JUMPDEST DUP7 SSTORE POP PUSH2 0x7A0 JUMP JUMPDEST PUSH1 0x1F NOT DUP5 AND PUSH2 0x74E DUP7 PUSH2 0x52A JUMP JUMPDEST PUSH1 0x0 JUMPDEST DUP3 DUP2 LT ISZERO PUSH2 0x776 JUMPI DUP5 DUP10 ADD MLOAD DUP3 SSTORE PUSH1 0x1 DUP3 ADD SWAP2 POP PUSH1 0x20 DUP6 ADD SWAP5 POP PUSH1 0x20 DUP2 ADD SWAP1 POP PUSH2 0x751 JUMP JUMPDEST DUP7 DUP4 LT ISZERO PUSH2 0x793 JUMPI DUP5 DUP10 ADD MLOAD PUSH2 0x78F PUSH1 0x1F DUP10 AND DUP3 PUSH2 0x69C JUMP JUMPDEST DUP4 SSTORE POP JUMPDEST PUSH1 0x1 PUSH1 0x2 DUP9 MUL ADD DUP9 SSTORE POP POP POP JUMPDEST POP POP POP POP POP POP JUMP INVALID LOG2 PUSH5 0x6970667358 0x22 SLT KECCAK256 0xE4 DUP5 GASLIMIT EQ 0x26 PUSH19 0x977EE5ECE9B577B80ADC4AB56BCFBC16904921 STATICCALL DUP13 0xB3 0x1F LOG0 DUP3 DUP4 PUSH5 0x736F6C6343 STOP ADDMOD SLT STOP CALLER "
				},
				"gasEstimates": {
					"creation": {
						"codeDepositCost": "402800",
						"executionCost": "436",
						"totalCost": "403236"
					},
					"external": {
						"num()": "infinite",
						"sender()": "2536",
						"setVars(string)": "infinite",
						"value()": "2407"
					}
				},
				"methodIdentifiers": {
					"num()": "4e70b1dc",
					"sender()": "67e404ce",
					"setVars(string)": "dcd4c72e",
					"value()": "3fa4f245"
				}
			},
			"storageLayout": {
				"storage": [
					{
						"astId": 3,
						"contract": "Test.sol:B",
						"label": "num",
						"offset": 0,
						"slot": "0",
						"type": "t_string_storage"
					},
					{
						"astId": 5,
						"contract": "Test.sol:B",
						"label": "sender",
						"offset": 0,
						"slot": "1",
						"type": "t_address"
					},
					{
						"astId": 7,
						"contract": "Test.sol:B",
						"label": "value",
						"offset": 0,
						"slot": "2",
						"type": "t_uint256"
					}
				],
				"types": {
					"t_address": {
						"encoding": "inplace",
						"label": "address",
						"numberOfBytes": "20"
					},
					"t_string_storage": {
						"encoding": "bytes",
						"label": "string",
						"numberOfBytes": "32"
					},
					"t_uint256": {
						"encoding": "inplace",
						"label": "uint256",
						"numberOfBytes": "32"
					}
				}
			},
			"userdoc": {
				"kind": "user",
				"methods": {},
				"version": 1
			}
		}
	}
}